:020000040800F2
:10000000A026012085FF010839F401083BF401080E
:100010003DF401083FF4010841F40108000000002C
:100020000000000000000000000000000D25010895
:1000300043F4010800000000B52401088D230108E5
:1000400055000208590002085D000208610002081C
:10005000650002086900020845F401084BF4010834
:100060006D0002087100020851F4010875000208D1
:10007000790002087D00020857F401088100020897
:1000800085000208890002088D000208910002081C
:1000900095000208990002089D000208A1000208CC
:1000A000A5000208A9000208AD000208B10002087C
:1000B000B5000208B90002085DF40108BD0002089D
:1000C000C1000208C5000208C9000208CD000208EC
:1000D000D100020863F40108D5000208D900020823
:1000E000DD000208E1000208E5000208E90002085C
:1000F000ED00020869F40108F1000208F5000208A9
:10010000F9000208FD0002086FF40108010102086D
:1001100005010208090102080D01020875F4010831
:100120007BF40108110102081501020819010208F7
:100130001D01020821010208250102082901020807
:100140002D010208310102083501020839010208B7
:100150003D01020841010208450102084901020867
:100160004D01020851010208550102085901020817
:100170005D0102086101020865010208000000003B
:10018000690102086D0102080021416000228260BD
:10019000DFF8B41D0160C26000F1840102614261B8
:1001A0008261C261026242628262C262026342632F
:1001B0008263C263026442648264C264026542650F
:1001C0008265C265026642668266C26602674267EF
:1001D0008267C267C0F880200A604A6070470000EA
:1001E0002DE9F84388B00646119C200090461F4632
:1001F00000F0C3810D4628460EF070FD814628466A
:100200000EF030FDADF80C00ADF80880ADF80A70C6
:10021000ADF80E9028460EF042FE804628460EF0BD
:1002200071FE8146109F28460EF0BFFE102800F296
:10023000A481DFE810F0D300C300110099019901F7
:10024000990199019901990199019901CA009901AE
:1002500099018E0199018301DFF8F00C00680168B3
:100260008A6B9047FF2C40F0A280800600F19F80AF
:1002700028460EF0D4FD30B93B4602AA414630462E
:1002800000F06DFA79E1294606A80EF063FDDDE97C
:100290000601CDE90401394604A80EF0EBFE06A8DC
:1002A00004A908220EF068FF684606A908220EF08D
:1002B00063FFBDF904000128A4BFBDF906000128B1
:1002C00075DBBDF90210B7F902208A4212DA891AE9
:1002D000B7F90430B7F90040ADF81220ADF814308A
:1002E000ADF81610ADF81040FF2304AA02A940464D
:1002F00000F046F9B7F90010BDF90000814214DAA8
:10030000BDF80030BDF90620BDF90240ADF810106F
:100310005B1AADF81430ADF81620ADF81240FF238B
:1003200004AA02A9404600F02BF96B4602AA4146F6
:10033000304600F014FA3988B888BDF8002041181A
:10034000BDF80400821809B210B2884212DABDF971
:100350000630BDF90240ADF81020891AADF814102E
:10036000ADF81630ADF81240FF2304AA02A94046AA
:1003700000F006F97988F888BDF802204118BDF828
:100380000600821809B210B2884280F2F680B7F9EE
:100390000430B7F90040ADF81220ADF81430891AD6
:1003A000ADF81040ADF81610FF2304AA01E0234673
:1003B0003A4602A9404600F0E3F8DEE023463A461A
:1003C00002A9404600F03CFAD7E00194009702AB46
:1003D0004A464146304600F03DFBCEE028460EF04E
:1003E0001EFD48B9009401903B463468E56802AAB6
:1003F00041463046A847C0E0294606A80EF0AAFCB0
:10040000DDE90601CDE90001394668460EF032FE0D
:1004100006A8694608220EF0AFFE04A806A9082225
:100420000EF0AAFEBDF914000128A4BFBDF9160004
:1004300001287BDB00940021019130463568EE688D
:1004400004AB02AA4146B047BDF91210B7F9022029
:100450008A4213DA891AB7F90430B7F90050ADF8B7
:100460001A20ADF81C30ADF81E10ADF818500094ED
:1004700006AB02AA4946404600F08EFEB7F90010CE
:10048000BDF91000814215DABDF81030BDF9162013
:10049000BDF91250ADF818105B1AADF81C30ADF86C
:1004A0001E20ADF81A50009406AB02AA49464046F9
:1004B00000F072FE3988B888BDF810204118BDF8E8
:1004C0001400821809B210B2884213DABDF916304E
:1004D000BDF91250ADF81820891AADF81C10ADF80E
:1004E0001E30ADF81A50009406AB02AA49464046A9
:1004F00000F052FE7988F888BDF812204118BDF846
:100500001600821809B210B2884236DAB7F9043000
:10051000B7F90050ADF81C30891AADF81850ADF895
:100520001A20ADF81E10009406AB01E000943B4683
:1005300002AA4946404600F02FFE1EE0D6F8880089
:10054000D8B100943B460468E56802AA4146A84732
:1005500013E0D6F8880080B100943B460468A56893
:1005600002AA4146A84708E0DFF8200CCE2200F19D
:100570003C010EF063FEAFF3008009B0BDE8F083EC
:100580002DE9F04F89B0054617460E461C4607A8D0
:1005900008220EF0F1FD05A8394608220EF0ECFD08
:1005A00007A80EF05DFE314605A8DFF8A0690EF041
:1005B00088FEBDF81430BDF91610BDF92020BDF934
:1005C0001400BDF91A8012FB01F21218BDF81C00CC
:1005D000C318BDF81E00ADF8143041183068ADF8EE
:1005E000161005EB82070168BDF918508A6B904719
:1005F000FF2C18D1800618D4306801688A6A9047A9
:10060000DFF88C1BBDF916300A8800915343BDF901
:1006100014105B1800EB430102FB08F201EB4200EF
:100620003A46029020E04006E6D50021049103946A
:100630001FFA88F1BDF82020306802920191ADB216
:10064000009539460468BDF81630BDF81420256DB4
:10065000A84781E000980788BDF920007F1B401B58
:1006600001EB470102EB8002029FB94270D201EB1D
:100670004507B942EED2019750E014FB00F000EBC1
:100680001020401C0004030EC3F1FF0E5FFA87FA2E
:100690005FFA8EFE1AFB03FA08884FEAD0094FEA88
:1006A0001028C0005FFA80FB40EA5B10C0B210FB6C
:1006B0000EA04FEA074A3F0209F0FC094FEA1A6A06
:1006C0003F0E08F0F8081AFB03FA49EA991917FBDC
:1006D00003F719FB0EA948EA581313FB0E773B04E6
:1006E0001B0E13FA87FC4FEA09473F0E17FA89F7EA
:1006F0000CF101037F1C1B043F041B0E3F0E1B0269
:10070000FF0003F4784307F4FC673B4307043F0E04
:1007100017FA80F0401C0004C00E12E001988142DC
:1007200098D21768380E10D0FF2808BFFF2CA4D12C
:10073000380A00F47843780900F4FC600343C7F3F7
:10074000C40040EA030CA1F800C0891C121DE5E7B3
:1007500030680168CA6A904709B0BDE8F08FF8B503
:1007600084B00C4615461E4602A8294608220EF003
:1007700003FD6846314608220EF0FEFC02A80EF08A
:100780006FFD29466846DFF8C4570EF09AFDBDF8A4
:100790000030BDF90210BDF90C20BDF90000BDF913
:1007A0000460BDF9067012FB01F21218BDF80800D2
:1007B000C318BDF80A00ADF8003041182868ADF83C
:1007C000021004EB820401688A6A9047DFF8C019BE
:1007D000BDF902C00A88BDF900300CFB02FC63447D
:1007E00000EB4300574300EB47021CE054F8047B46
:1007F0004FEA172C4FEA571E0CF4784C0EF4FC6E9F
:100800004EEA0C0CC7F3C40747EA0C0720F8027B3A
:100810009842EBD30B889B1B00EB4300BDF90C30D7
:100820009B1B04EB8304904204D200EB46039842E6
:10083000F0D2EDE728680168CA6A904705B0F0BDBC
:100840002DE9F84D8DB0044617460D461E460BA8FF
:1008500008220EF091FC09A8394608220EF08CFC03
:100860000BA80EF0FDFC294609A80EF02AFDBDF8E4
:100870002430BDF92610BDF93020BDF92400BDF9A2
:10088000285012FB01F21218BDF82C00C318BDF855
:100890002E00ADF824304118DFF8B0060068ADF83E
:1008A000261002EB42020168A718BDF92A408A6BA4
:1008B0009047FF2E20D1C00720D4DFF8901608689B
:1008C0000268916A8847DFF8C8281388BDF9262096
:1008D000BDF924105A43521800EB4201BDF9300013
:1008E0005C435B1B01EB4402401BFF2E00EB40040A
:1008F00040D11E46019235E04007DED5DFF84C16A8
:10090000086801210691002208920023DFF8801870
:100910000793A4B20A880592049303960194ADB29A
:10092000BDF830100291009539460468BDF82630B4
:10093000BDF82420D4F84080C04788E0BA787B789E
:100940001202DB0002F4784203F4FC631A4317F846
:10095000033B42EAD30221F8022B8142EED301EBA2
:1009600046012744019881426BD201EB4500814248
:10097000F5D2F2E78DF800600495039302943846AF
:1009800001924EE00D88EE0806F0FC0E10F8016BA7
:1009900010F801BB2C0AED005FFA85FA45EA5A15FA
:1009A00016FB03F6EDB210F801AB04F0F80415FBEA
:1009B00002651BFB03FB4EEA9E1E1EFB02BE1AFBDA
:1009C00003FA44EA541C1CFB02AC4FEA0C444FEA05
:1009D0000E46240E360E14FA8CFC16FA8EFE0CF11E
:1009E00001040EF1010624043604240E360E2402FE
:1009F000F60004F4784406F4FC6634432E044FEA0F
:100A0000166E1EFA85FE0EF101052D0454EAD5641A
:100A100021F8024BB942B5D3039A029B01EB420184
:100A20001844019FB9420CD2049B01EB4307B94221
:100A3000F2D29DF800209DF80030C2F1FF02D2B240
:100A4000E8E7DFF8080500680168CA6A90470EB059
:100A5000BDE8F08DFEB50446084611461A460F78EB
:100A6000089B099D4E78002F2CD0022F02D051D325
:100A700003B0F0BD032E1CD8DFE806F00207090C16
:100A8000009500F081F903B0F0BDE46F04E0D4F804
:100A9000804001E0D4F88440002C65D0009301959B
:100AA00013460A46014620462468A568A84703B0B5
:100AB000F0BDDFF8D80600F13C0140F2B11200F5BC
:100AC0004D704DE0032E1CD8DFE806F00207090C3C
:100AD000009500F04BF803B0F0BDE46F04E0D4F8EB
:100AE000804001E0D4F88440002C3DD00093019573
:100AF00013460A46014620462468E568A84703B025
:100B0000F0BDDFF8880600F13C014FF4E77200F514
:100B10005A7025E0032E1BD8DFE806F00207090C07
:100B2000009500F015FA03B0F0BDE46F04E0D4F8CE
:100B3000804001E0D4F88440B4B10093019513469D
:100B40000A460146204624682569A84703B0F0BD3F
:100B5000DFF8380600F13C0140F2EB1200F5687056
:100B60000EF06CFBAFF3008003B0F0BD2DE9F84F41
:100B70000C468EB00546208816461F4658B1DFF851
:100B80000C0600F13C014FF4FA7200F575700EF09E
:100B900055FBAFF300800CA8314608220EF0ECFAAA
:100BA0000AA8394608220EF0E7FA0CA80EF058FB06
:100BB00031460AA80EF085FBBDF82830BDF92A1091
:100BC000BDF93420BDF92800BDF92C60BDF92EA077
:100BD000DFF8BC9512FB01F21218BDF83000C31803
:100BE000BDF83200ADF828304118D8480068ADF89B
:100BF0002A10AF180168189D8A6B904700061CD513
:100C0000D24908680B2107910022B9F80010099217
:100C1000089206910122BDF83410039105920495C3
:100C20001FFA8AF10291B6B201963946BDF82A2020
:100C3000BDF8283000922246A0E0C4480068016850
:100C40008A6A9047B9F80030BDF92A20BDF928100A
:100C50005A43A3EB060C521800EB420003FB0AF1C7
:100C6000BDF93430039600EB410EA3EB0608AA460B
:100C700039460246CDF804C02B46CDF808E003E023
:100C8000019802EB40024144029DAA4270D20398AF
:100C900002EB4005AA42F3D200954EE01AFB00F0A9
:100CA00000EB1020401C0004000EC0F1FF09178863
:100CB0004FEAC70E5FFA8EFB4EEA5B1E5FFA89F9B8
:100CC0005FFA8EFE4FEAD70C19FB0EFE3E0AEFB21A
:100CD0000CF0FC0C10FB07EE06F0F8062F044CEAB3
:100CE0009C1C3F0E19FB0CFC2D0246EA561610FB0D
:100CF00007CC2D0E19FB06F610FB056630044FEAF3
:100D00000C45000E2D0E10FA86F015FA8CF5401CDD
:100D10006D1C00042D04000E2D0E0002ED0000F4E9
:100D2000784005F4FC6528434FEA0E452D0E15FA70
:100D30008EF56D1C2D04ED0E16E0009882429FD2B8
:100D4000251D11F801CB55F82C50280E0ED0FF2888
:100D500008BFFF2BA2D1280A6E0900F4784006F4E0
:100D6000FC663043C5F3C40528431080921CE4E7B9
:100D7000764800680168CA6A904702E00468E56B3B
:100D8000A8470FB0BDE8F08F2DE9F04F0C4685B0B5
:100D900007462088022816461D460BD0DFF8EC03D4
:100DA00000F13C0140F24B2200F224400EF046FAE2
:100DB000AFF30080DDF838A05FEA0A0000F0C280DF
:100DC0006846314608220EF0D7F902A829460822C3
:100DD0000EF0D2F968460EF043FA314602A8DFF869
:100DE0006C81DFF8AC930EF06CFABDF80830BDF9F9
:100DF0000A10BDF90420BDF90800BDF90C5012FB22
:100E000001F21218BDF80000C318BDF80200ADF8D9
:100E100008304118D8F80000ADF80A10BE18016873
:100E2000BDF90E708A6A9047B9F80010BDF90A3012
:100E3000BDF908204B439B1800EB43024F43BAF126
:100E4000FF0F02EB470370D0CAF1FF013046AC46FA
:100E5000049351E0251D10F8016B35F816501688E3
:100E6000EF005FFA87FEF700FFB211FB07F71AFBEE
:100E70000E7E4FEAD60BEF080BF0FC0B360A07F09C
:100E8000FC0711FB0BFB2D0A06F0F8061AFB07B74F
:100E900005F0F80511FB06F61AFB05652E04360E63
:100EA00016FA85F53E04360E16FA87F66D1C761C8A
:100EB0002D0436042D0E360E2D02F60005F478456D
:100EC00006F4FC6635434FEA0E46360E16FA8EFEE1
:100ED0000EF10106360455EAD66522F8025B9A4205
:100EE000B8D3B9F80030A3EB0C0302EB4302BDF911
:100EF0000430A3EB0C031844049DAA421DD202EB5C
:100F00004C039A42EDD2EAE716F801AB31F81A70B9
:100F100022F8027B8242F7D3B9F80000401B02EBB3
:100F20004002BDF90400401B36189A4205D202EB7C
:100F300045008242F0D2211DECE7D8F8000001689C
:100F4000CA6A904756E2000004F50108C41A01205D
:100F50002DE9F84F88468EB00546B8F80000012804
:100F600016461C460AD0894800F13C0140F29922FD
:100F700000F274400EF062F9AFF30080189F380061
:100F800000F002810AA8314608220EF0F5F80CA8FC
:100F9000214608220EF0F0F80AA80EF061F9314659
:100FA0000CA80EF08EF9BDF83030BDF93210BDF945
:100FB0002C20BDF93460BDF93690BDF9300012FB2C
:100FC00001F21218BDF82800C318BDF82A00ADF8C8
:100FD000303041186F480068ADF83210AC18016825
:100FE0006B4D8A6B904700061BD56A492D880868AF
:100FF00006950B2107910022BDF82C10099208924A
:1010000003910122059204971FFA89F10291B6B269
:1010100001962146BDF83220BDF83030009242469C
:10102000ACE65C48006801688A6A90472988BDF987
:101030003230BDF930204B439B1800EB430201FBDB
:1010400009F0FF2F02EB400300F09280C7F1FF0090
:10105000C0B22146009363E011F8014B08F1040E81
:1010600004EB44047444B2F800E094F800A04FEAA2
:10107000DE0C4FEA1E294FEACE0E5FFA8EFB4EEAD7
:101080005B1E5FFA8EFE10FB0EFE0CF0FC0C17FBD5
:101090000AEE09F0F80994F801A0A4784CEA9C1C27
:1010A00010FB0CFC49EA591917FB0ACC10FB09F993
:1010B00017FB04994FEA09444FEA146B1BFA89F4B1
:1010C0004FEA0C494FEA196919FA8CFC641C0CF1BF
:1010D000010C24044FEA0C4C240E4FEA1C6C240231
:1010E0004FEACC0C04F478440CF4FC6C4CEA040495
:1010F0004FEA0E4C4FEA1C6C1CFA8EFC0CF1010CF2
:101100004FEA0C4C44EADC6422F8024B9A42A3D327
:101110002B889B1B02EB4302BDF92C309B1B19440F
:10112000009B9A422BD202EB46039A42F0D2EDE7A3
:1011300014F8017B08F1040107EB470739448F7865
:101140003F0207F4784C4F780978FF0007F4FC67FA
:1011500047EA0C0747EAD10122F8021B8242E7D393
:101160002888801B02EB4002BDF92C00801B24184C
:101170009A4204D202EB46008242F1D2EEE70548E1
:1011800000680168CA6A9047FBE50000E8D90108D9
:10119000BE1A0120C41A01202DE9F04F85B0054682
:1011A0000F461646DDF838A01C4668463146082230
:1011B0000DF0E2FF02A8214608220DF0DDFF68468F
:1011C0000EF04EF8314602A80EF07BF8BDF90A1079
:1011D000BDF90420BDF90800BDF80830BDF90C6068
:1011E000DFF8508612FB01F2101805EB40043F189F
:1011F000BDF80000BDF90E50C318BDF80200ADF8EF
:1012000008304118DFF830060068ADF80A100168B0
:101210008A6A9047B8F80010BDF90A30BDF9082075
:101220004B439B18BAF1FF0F00EB430301FB05F59D
:1012300073D003EB450021463A46049065E01078F0
:10124000002852D01AFB00F000EB1020401C0004D4
:10125000000E4AD0B3F800C0B1F800E0C0F1FF04BE
:101260004FEACC07E4B24FEACE05FFB2EDB214FB71
:1012700007F710FB05754FEADC0B4FEADE070BF0B2
:10128000FC0B4FEA1C2C07F0FC0714FB0BFB4FEA8E
:101290001E2E0CF0F80C10FB07B70EF0F80E14FB26
:1012A0000CFC10FB0EC00404240E14FA80F03C0465
:1012B0004FEA146C1CFA87FC401C0CF1010400047A
:1012C0002404000E240E0002E40000F4784004F42C
:1012D000FC6420432C044FEA146C1CFA85FC0CF1CE
:1012E0000104240450EAD46018809B1C891C521C01
:1012F0004B45A4D3B8F80000801B03EB4003BDF9B5
:101300000400801B01EB40010244049883426BD22D
:1013100003EB46094B45EDD2EAE703EB450A2246CB
:1013200039460AE0B8F80000801B03EB4003BDF922
:101330000400801B02EB40020144534554D203EBEE
:1013400046094B45EED243E0B3F800C0C0F1FF0EB2
:101350004FEACC075FFA8EFEEC00FFB2E4B21EFB50
:1013600007F710FB04744FEADC0BEF080BF0FC0BE3
:101370004FEA1C2C07F0FC071EFB0BFB2D0A0CF0A0
:10138000F80C10FB07B705F0F8051EFB0CFC10FB72
:1013900005CC4FEA0C40000E10FA8CF53804000E14
:1013A00010FA87F06D1C401C2D0400042D0E000E59
:1013B0002D02C00005F4784500F4FC6005432004CC
:1013C000000E10FA84F0401C000455EAD06506E0D7
:1013D0004B45A7D2087818B11588FF28B4D11D80D5
:1013E0009B1C921C491CF3E7DFF84C040068016861
:1013F000CA6A904705B0BDE8F08F2DE9F84F8AB072
:101400000F46149C002C16461D4600F0E18008A8EB
:10141000314608220DF0B0FE06A8294608220DF03C
:10142000ABFE08A80DF01CFF314606A8DFF80864E3
:101430000DF047FFBDF81830BDF91A10BDF9242092
:10144000BDF91800BDF91E8012FB01F21218BDF89B
:101450002000C318BDF82200ADF8183041183068DC
:10146000ADF81A1007EB42050168BDF91C708A6BD4
:1014700090471599FF2C21D10A0001D1C0071FD434
:101480003068DFF8B09301688A6A9047B9F80010B5
:10149000BDF91A30BDF918204B439B1800EB430BE4
:1014A00001FB08F0FF2C0BEB400A00F08B80234679
:1014B000C3F1FF00D04629463C466CE04007DFD52B
:1014C00004910022BDF82410306802910592039423
:1014D0001FFA88F10191BFB2009729460468BDF850
:1014E0001A30BDF81820D4F84480C04770E031F8B5
:1014F000025BBBF800E0EF005FFA87FC4FEACE0723
:10150000FFB210FB07F713FB0C7C4FEADE0AEF0873
:101510000AF0FC0A4FEA1E2E07F0FC0710FB0AFA3D
:101520002D0A0EF0F80E13FB07A705F0F80510FBC7
:101530000EFE13FB05EE4FEA0E452D0E15FA8EFE3C
:101540000EF101052D042D0E2D0205F4784E3D04FB
:101550002D0E15FA87F56D1C2D042D0EED0005F4EA
:10156000FC6545EA0E074FEA0C452D0E15FA8CFC7A
:101570000CF101052D0457EAD5652BF8025B934564
:10158000B5D3B9F80020121B0BEB420BBDF9242098
:10159000121B01EB4201C34516D20BEB44029345EB
:1015A000EFD2ECE730680468D4F834C07B002A46F8
:1015B0005946E047B9F800000BEB400BBDF9240099
:1015C00005EB4005D345EDD330680168CA6A904702
:1015D0000BB0BDE8F08FF8B506461D46E8B200280E
:1015E00086B0144642D0B1F904000028C4BFB1F956
:1015F0000670002F3ADD04A808220DF0BDFD04A8F6
:101600000DF02EFE8C4F386801688A6B9047E9B266
:10161000FF2916D1800716D500210391EDB2BDF840
:1016200014103868BDF81620BDF8123000910295EC
:10163000214601920468BDF81020256EA84707B026
:10164000F0BD0007E8D4386801688A6A9047EDB2B7
:101650000094019504AB774934680A88656A0146AD
:101660003046A84738680168CA6A904707B0F0BD9D
:101670002DE9FE4F0D9C1046002C1A4600F0D68036
:10168000B2F90430002BC4BFB2F90650002D40F36C
:10169000CD80B2F90070B2F902200C9E814609FBA0
:1016A00002F23A44370A01EB420109FB05F5FF2C2F
:1016B000A9EB030201EB450A0ED1740907F4784740
:1016C00004F4FC642743C007C6F3C40069D507438C
:1016D0000193CDF800A05BE0FFB230025FFA86FE16
:1016E00014FB07F74FEA1068B94614FB0EFEC4F16D
:1016F000FF0014FB08F877463DE00E884FEAC60E5F
:10170000F408350A5FFA8EF64EEA561604F0FC0429
:101710005FFA86FE05F0F80510FB0E7E44EA94148D
:1017200010FB049445EA551510FB05852E04360E72
:1017300016FA85F52604360E16FA84F46D1C641C20
:101740002D0424042D0E240E2D02E40005F478450A
:1017500004F4FC6425434FEA0E44240E14FA8EFE72
:101760000EF10104240455EAD46521F8025B6145B9
:10177000C3D301EB4201514558D201EB430C614503
:10178000F7D2F4E721F8027B8142FBD301EB42015F
:10179000009881424AD2019B01EB43008142F5D27D
:1017A000F2E7074311F0030008D0084602E0078083
:1017B00000EB49005045FAD3891C5B1E03EBD37242
:1017C0005210B3EB420009D001EB4302901E02E03D
:1017D000078000EB49005045FAD35B1E33B347EA5C
:1017E000074700975C10DFF85C7007F51C720192E8
:1017F0000D4606E04BF8040B8B45FBD3009005EB40
:101800004905554512D2AB461BF0030008D001989C
:101810004FF4956207F13C010DF010FDAFF300802D
:101820000BEB84018D42EAD20098E5E705F0FBBEA0
:1018300000000000BE1A0120C41A01200DB0BDE84E
:10184000F08F0000E8D9010838B5FF2B04460D469B
:1018500000F0B480002A00F0A780012A00F0A080E8
:10186000022A00F09F80032A00F09880082A00F0E6
:101870009D80092A00F09C800A2A00F097800B2A9C
:1018800000F096802C2A39D02D2A10D02E2A6CD028
:101890002F2A51D0302A00F08F80312A00F08A8020
:1018A000322A00F08980332A00F084801AE06868C8
:1018B00048B940F29262DFF8A01C0FF260200DF0F0
:1018C000BDFCAFF300806968487868B1DFF88C0C24
:1018D00040F29A6200F13C0100F528700DF0AEFC78
:1018E000AFF30080002032BD087800283BD00228EA
:1018F00002D0F7D2606A32BD606932BD686848B90B
:1019000040F2AB62DFF8501C0FF210200DF096FC95
:10191000AFF300806968487820B1DFF8400C40F2EE
:10192000B362D7E70878002836D0022802D0D9D28F
:10193000E06932BDE06832BD686848B940F2C4620F
:10194000DFF8141C0FF2D4100DF078FCAFF3008018
:101950006968487820B1DFF8040C40F2CB62B9E73F
:1019600008780028BED1606B32BD686848B940F283
:10197000D762DFF8E41B0FF2A4100DF05FFCAFF3A9
:1019800000806968487820B1DFF8D00B40F2DF6250
:10199000A0E708780028A5D1E06A32BDE06C32BD2E
:1019A000606D32BDE06B32BD606C32BDE06D32BD4A
:1019B000606E32BD606F32BDE06E32BD002A00F055
:1019C000A280012A00F09B80022A00F09A80032A5C
:1019D00000F09380082A00F09880092A00F0978090
:1019E0000A2A00F092800B2A00F091802C2A31D034
:1019F0002D2A10D02E2A66D02F2A4AD0302A00F065
:101A00008A80312A00F08580322A00F08480332ACF
:101A100000F07F8066E7686848B940F20772DFF837
:101A2000381B0FF2F8000DF009FCAFF30080696875
:101A3000487820B1DFF8240B40F20F724AE70878AB
:101A400000283ED0022803D0BFF44CAFA06A32BDBC
:101A5000A06932BD686848B94FF4E462DFF8F81A4B
:101A60000FF2B8000DF0EAFBAFF300806968487828
:101A700020B1DFF8E80A4FF4E5622BE70878002888
:101A800039D0022803D0BFF42DAF206A32BD2069BF
:101A900032BD686848B940F23972DFF8BC1A0FF2FB
:101AA0007C000DF0CBFBAFF300806968487820B173
:101AB000DFF8A80A40F241720CE7087800287FF4AA
:101AC00011AFA06B32BD686848B940F24D72DFF8C3
:101AD000881A0FF248000DF0B1FBAFF3008069687F
:101AE000487820B1DFF8740A40F25572F2E60878BF
:101AF00000287FF4F7AE206B32BD206D32BDA06DA3
:101B000032BD206C32BDA06C32BD206E32BDA06EE5
:101B100032BDA06F32BD206F32BD00007465787495
:101B20007572652E6578747261446174610000009D
:101B30002DE9F04F87B00D46DDF854E0DDF858A0F0
:101B4000DDF85C80DEF800B0DEF804E0189FDDF818
:101B500064900BEB4A0A0EFB08F80AEB480ED7F824
:101B600004B0D7F8008014461846C9F1FF0A109E49
:101B7000DDF844C0129B1399149A0BF1040B5FFA21
:101B80008AFA002DCDF80CB0CDF814A0CDF8009055
:101B9000DFEDA53A01DC002C04DD019506941096DA
:101BA000189702E002F044BB1098189DEE68049666
:101BB0003446189EB768029700283D460CF5004C45
:101BC00003F5004314DD2EB227B25FEA2C4B4FEA37
:101BD000234A06D4B34504DABAF1000F01D4BA455A
:101BE00006DBD318401E00288C440EF1020EECDCFC
:101BF00000286CD0471E02FB0736361401FB07C7CE
:101C00003F1424B200F1A7802DB2AF4280F2A3802E
:101C1000002E00F1A080A64280F29D80002856DDB3
:101C200013910399029CDDF8009013FB24F404EB5C
:101C30002C44D31818F8045031F81570BEF8004041
:101C4000059D4FEAC40AFE005FFA8AFAF6B205FB68
:101C50000AFA09FB06A64FEAD40B240A4FEAD70971
:101C6000DDF800A00BF0FC0B3F0A04F0F80409F0CB
:101C7000FC0905FB0BFB07F0F8076C430AFB09B9ED
:101C80000AFB074425042D0E15FA84F44FEA094592
:101C90002D0E15FA89F5641C6D1C24042D04240EE8
:101CA0002D0E2402ED0004F4784405F4FC652C4369
:101CB00035042D0E15FA86F56D1C2D0454EAD564F5
:101CC0002EF8024B401E139CA444ABD10391019803
:101CD00000287FF767AFF0EE621AB0EE432A30EECD
:101CE000040AF7EE002A401E70EEA40A82EE803A43
:101CF000019031EE051A63EE202A23EE013A109886
:101D0000109A61EEA35A72EEE11A61EEA31AFDEE8B
:101D1000E11A11EE901A91FBF0F1FDEEE55A15EE85
:101D200090CA62EE235A33EE422A22EE232ABDEEF7
:101D3000C22A12EE100A90FBF2F20198FDEEE55A6B
:101D4000002815EE903A3FF72FAF0698019D109EA0
:101D5000189F04461FE70028B9DD139103994FEA45
:101D60002C441D14401E049E002C55D4029FBC42DE
:101D700052DA002D50D4B5424EDA02AEB6F90070F8
:101D8000BEF80060DDF8009017FB05444FEAC60A74
:101D900018F8044031F81470059CFD005FFA8AFAC7
:101DA000EDB204FB0AFA09FB05A54FEAD60B360A89
:101DB0004FEAD709DDF800A00BF0FC0B3F0A06F054
:101DC000F80609F0FC0904FB0BFB07F0F807664373
:101DD0000AFB09B90AFB07663404240E14FA86F4D8
:101DE0004FEA0946360E16FA89F6641C761C24045E
:101DF0003604240E360E2402F60004F4784406F469
:101E0000FC6634432E04360E16FA85F56D1C2D043F
:101E100054EAD564AEF80040D318139C00280EF1A4
:101E2000020EA4449BD151E7000080472DE9F04FFA
:101E30009E4685B00C46DDF84CC0149F159DDCF81D
:101E400000A0DCF804C0169B0AEB47070CFB05F565
:101E5000104607EB450CDDF838800F9EDDF840900A
:101E60001199129A1F680297DFED5D3A5D682F1D88
:101E7000002C019701DC002803DD049016937046C6
:101E800002E0FFF7B7BA4046169DED6803952B4672
:101E9000169DAF6800970028BE4606F5004609F576
:101EA000004914DD5FEA264A1DB24FEA294707D4EC
:101EB0000FFA8EFBDA4503DA002F01D4AF4206DBBE
:101EC0008E19401E002891440CF1020CEADC20B36C
:101ED000471E02FB07952D1401FB07673F141BB239
:101EE00058D40FFA8EFE774554DA002D52D49D4215
:101EF00050DA002811DD1546029A019B371419FBB0
:101F00002E7A8E1912F80AB033F81B702CF8027B67
:101F1000401EA944F2D102920193002CB1DDF0EEF3
:101F2000621AB0EE432A30EE040AF7EE002A70EE91
:101F3000A40A82EE803A31EE051A63EE202A23EEDF
:101F4000013A61EEA35A72EEE11A61EEA31AFDEEB8
:101F5000E55AFDEEE11A15EE906A11EE900A73EE65
:101F6000421A61EEA31A641E62EE235A90FBF8F146
:101F7000FDEEE11AFDEEE55A11EE900A002C15EE89
:101F8000909A90FBF8F23FF77EAFDDF810E0169BD9
:101F9000704670E70028C0DD9646029A019B351412
:101FA000401EDDF80CA0002D4FEA294710D4DDF8C3
:101FB00000B05D450CDA002F0AD4574508DABDF9A8
:101FC00000B01BFB0755555D33F81570ACF8007079
:101FD0008E1900280CF1020CF144E0D19BE70000BF
:101FE000000080472DE9F14F2DED0A8B8EB0894618
:101FF000DDF89CC0289EDCF80070299C2A9DDDF845
:1020000088A02399DDF8988007EB4606DCF8047079
:102010007C4310469E4606EB440C249A259B2E6872
:102020000896B0EE408A6F683E1D0796B9F1000F22
:102030009DF8AC40C4F1FF04E4B20C94F0EE608A69
:102040009DF8AC700A97B0EE419AF0EE629AB0EE4D
:1020500043AAF0EE44AAB0EE64BAF0EE45BA9FEDA2
:1020600006CA01DC002809DD0D90CDF82C907046E1
:10207000CDF888A005E000BF0000804703F028B835
:102080002298D5F80CE0D5F80890002828DD0FFA42
:1020900089F6771C0197761E00960FFA8EFA0C14BB
:1020A0001614002C08D4009FBC4205DA002E03D47D
:1020B000AAF10107BE4213DB641C574609D4DDF8C0
:1020C00004B05C4505DA761C03D47F1CBE42C0F226
:1020D000EF805918401E002842440CF1020CDEDC4F
:1020E000002800F0F381441E08FB042A03FB0414BB
:1020F00024140FFA8EFE4FEA2A4A00F1D9800FFA13
:1021000089F9A9F101094C4580F2D280BAF1000F9A
:1021100000F1CE80AEF10104A24580F2C980002812
:1021200040F3D481CDF898808946924625932A952C
:10213000CDF824C080464FEA293010F00F0B2A98C2
:102140000899806800B24FEA29421AFB20231944FB
:10215000DDF81CC00A783CF812404FEA2A3505F039
:102160000F05A8F1010800F0AA8111F8013F3CF821
:102170001320ADF800203DB1084410F8012D40783F
:102180003CF812603CF81070BBF1100FB8BF102D76
:1021900009DBDFF87C1DDFF87C0D40F2FB120DF04F
:1021A0004DF8AFF300802204BDF8001002F0FC628D
:1021B00024F4FC64144315FB0BF00BEB05030A0439
:1021C00040055B0002F0FC6221F4FC61000EB6B237
:1021D000C3F120031143C0EB4B0CC3180CFB01F1FE
:1021E000320403FB041102F0FC6226F4FC66164381
:1021F000C0EB4503BFB203FB0616390401F0FC61D6
:1022000027F4FC670F4300FB0760410D4FF61F02E8
:1022100001F4FC6102EA5010084309990A880C9BFA
:102220000A9DD400C100E4B2C9B25C4305FB014180
:102230004FEAD20E120AC5080A9C0EF0FC0E000AE4
:1022400002F0F80205F0FC0503FB0EFE00F0F800BA
:102250005A4304FB05E504FB00200204120E12FAA7
:1022600080F02A04120E12FA85F2401C521C00045F
:102270001204000E120E0002D20000F4784002F4A4
:10228000FC6210430A04120E12FA81F1491C09047F
:1022900050EAD1600999891C0991B8F1000F21F821
:1022A000020D2699259881448A447FF444AF02E1C7
:1022B000002840F30B81CDF89880894692462593FB
:1022C0002A95CDF824C080464FEA293000F00F0B44
:1022D0002A98C3684FEA29414FEA2A3500294FEA74
:1022E0002A4205F00F05A8F1010800F1B9808068C5
:1022F000441EA14280F2B480002A00F1B1805C1E2D
:10230000A24280F2AD8000B2089B10FB021119447A
:10231000079A91F800C032F81C40BBF1000F10D0B2
:1023200011F8013F32F81320ADF800207DB10844C8
:10233000079910F8012D407831F8126031F81070CB
:1023400005E02A0003D0079A085C32F81060BBF160
:10235000100FB8BF102D09DBDFF8B41BDFF8B40B8A
:1023600040F2FB120CF06AFFAFF300802204BDF8CC
:10237000001002F0FC6224F4FC64144315FB0BF023
:102380000BEB05030A0440055B0002F0FC6221F43C
:10239000FC61000EB6B2C3F120031143C0EB4B0C3D
:1023A000C3180CFB01F1320403FB041102F0FC62C0
:1023B00026F4FC661643C0EB4503BFB203FB0616CA
:1023C000390401F0FC6127F4FC670F4300FB076050
:1023D000410D4FF61F0201F4FC6102EA5010084360
:1023E00009990A880C9B0A9DD400C100E4B2C9B2C5
:1023F0005C4305FB01414FEAD20E120AC5080A9C54
:102400000EF0FC0E000A02F0F80205F0FC0503FBDA
:102410000EFE00F0F8005A4304FB05E504FB002023
:102420000204120E12FA80F02A04120E12FA85F239
:10243000401C521C00041204000E120E0002D200B6
:1024400000F4784002F4FC6210430A04120E12FAFF
:1024500081F1491C090450EAD160099908801FE004
:1024600011F1010E1CD42A988068441CA64517DA85
:10247000541C15D403F1010C644511DA1BB200B2EF
:102480009DF8AC4006940392029101930090079B43
:10249000089A099918980595CDF810B000F060F8E1
:1024A0000998811C0991B8F1000F2598269981445B
:1024B0008A447FF409AF2A9DDDF824C006E02A0093
:1024C0003FF462AE085C3CF810605DE60B980028B3
:1024D0007FF7D4AD38EE2A8AB7EE001AB0EE690A5B
:1024E000F0EE4A0A78EE8B8A39EE2B9A81EE081AC2
:1024F000411E61EE289A21EE09AA0B9120EE0C1ADA
:1025000039EEC00A20EE0C0ABDEEC00A2298BDEEDC
:10251000C11A10EE103A11EE101A93FBF0F3DDF829
:102520002C90229820EE8C1A7AEE600A60EE8C0ACB
:10253000FDEEE00ABDEEC11A10EE908AB9F1000F6F
:1025400011EE102A98FBF0F83FF79AADDDF834E071
:10255000DDF888A0704685E524DA0108E8D901088D
:102560002DE9F047BDF920E00A9FDDF82CC00C985A
:102570000D460EFB0C742E88BDF92410BCF1000F23
:102580002244B246B046B14611D48C450FDA002F32
:1025900004D47745BCBF147833F814607C1C06D48F
:1025A000744504DA04001CBF547833F814A01CF1FD
:1025B000010C0D9C16D48C4514DA210012D0002F8A
:1025C00005D47745BCBF12F80E1033F811807F1C7C
:1025D00008D4774506DA010004D0511C11F80E200A
:1025E00033F812900746102FB8BF102C09DB40F2C9
:1025F000FB12DFF81C19DFF81C090CF01FFEAFF30B
:102600000080320402F0FC6226F4FC6616434FEAB6
:102610000A4214FB07F13B1902F0FC622AF4FC6A3F
:1026200049055B004AEA020A090EC3F12003C1EB27
:102630004702CB1802FB0AFA03FB06AA4FEA08433B
:1026400003F0FC6328F4FC6242EA0308C1EB440295
:1026500002FB08A84FEA094303F0FC6329F4FC627B
:102660001A4301FB02814B0D4FF61F020E9803F433
:10267000FC6302EA51112A881943C0F1FF03D60016
:10268000DBB2CC00F6B2E4B213FB06F610FB046436
:10269000D708CE0807F0FC0A120A06F0FC0613FB66
:1026A0000AFA090A02F0F80210FB06A606F01FB9A2
:1026B0002DE9F14F2DED0A8B8CB08946DDF894C0E1
:1026C000269EDCF80070279C289DDDF880A02199CB
:1026D000DDF8908007EB4606DCF804707C4310467A
:1026E0009E4606EB440C229A239B2E680796B0EE7A
:1026F000408A6F683E1DB9F1000FF0EE608AB0EEBF
:10270000419AF0EE629AB0EE43AAF0EE44AAB0EE1F
:1027100064BAF0EE45BA06969FED05CA01DC0028C2
:1027200008DD0A90CDF824907046CDF880A005E031
:10273000000080470CB002F0CCBC2098D5F80CE02B
:10274000D5F80890002828DD0FFA89F6771C019744
:10275000761E00960FFA8EFA0C141614002C08D46C
:10276000009FBC4205DA002E03D4AAF10107BE4245
:1027700013DB641C574609D4DDF804B05C4505DA68
:10278000761C03D47F1CBE42C0F2B2805918401E92
:10279000002842440CF1020CDEDC002800F07281BB
:1027A000441E08FB042A03FB041424140FFA8EFEB3
:1027B0004FEA2A4A00F19C800FFA89F9A9F1010930
:1027C0004C4580F29580BAF1000F00F19180AEF196
:1027D0000104A24580F28C80002840F35381CDF89B
:1027E00090808946924623932895CDF820C0804654
:1027F0004FEA293010F00F0B28980799806800B233
:102800004FEA29421AFB20231944DDF818C00A7840
:102810003CF812404FEA2A3505F00F05A8F10108EF
:1028200000F0298111F8013F3CF81320ADF8002099
:102830003DB1084410F8012D40783CF812603CF896
:102840001070BBF1100FB8BF102D09DBDFF8C016F8
:10285000DFF8C00640F2FB120CF0F0FCAFF3008092
:102860002204BDF8001002F0FC6224F4FC6414435E
:1028700015FB0BF00BEB05030A0440055B0002F0AF
:10288000FC6221F4FC61000EB6B2C3F120031143D7
:10289000C0EB4B0CC3180CFB01F1320403FB041119
:1028A00002F0FC6226F4FC661643C0EB4503BFB29F
:1028B00003FB0616390401F0FC6127F4FC670F43A3
:1028C000089B00FB0760410D4FF61F029B1C01F4A3
:1028D000FC6102EA50100893084323F8020DB8F196
:1028E000000F2398249981448A447FF481AFBEE08D
:1028F000002840F3C780CDF8908089469246239304
:102900002895CDF820C080464FEA293000F00F0B03
:102910002898C3684FEA29414FEA2A3500294FEA2F
:102920002A4205F00F05A8F1010878D48068441EFA
:10293000A14274DA002A72D45C1EA2426FDA00B29D
:10294000079B10FB02111944069A91F800C032F857
:102950001C40BBF1000F10D011F8013F32F81320DA
:10296000ADF800207DB10844069910F8012D40789B
:1029700031F8126031F8107005E02A0003D0069A91
:10298000085C32F81060BBF1100FB8BF102D09DBE6
:10299000DFF87C15DFF87C0540F2FB120CF04EFCF2
:1029A000AFF300802204BDF8001002F0FC6224F4B2
:1029B000FC64144315FB0BF00BEB05030A04400504
:1029C0005B0002F0FC6221F4FC61000EB6B2C3F1C0
:1029D00020031143C0EB4B0CC3180CFB01F1320474
:1029E00003FB041102F0FC6226F4FC661643C0EB04
:1029F0004503BFB203FB0616390401F0FC6127F45E
:102A0000FC670F4300FB0760410D4FF61F0201F406
:102A1000FC6102EA50100843089908801CE011F19B
:102A2000010E19D428988068441CA64514DA541C59
:102A300012D403F1010C64450EDA1BB200B203920A
:102A4000029101930090069B079A089916980595A4
:102A5000CDF810B000F05CF80898811C0891B8F12E
:102A6000000F2398249981448A447FF44DAF289D18
:102A7000DDF820C006E02A003FF4E3AE085C3CF835
:102A80001060DEE6099800287FF754AE38EE2A8AF7
:102A9000B7EE001AB0EE690AF0EE4A0A78EE8B8AB9
:102AA00039EE2B9A81EE081A411E61EE289A21EE2A
:102AB00009AA099120EE0C1A39EEC00A20EE0C0A80
:102AC000BDEEC00A2098BDEEC11A10EE103A11EE0C
:102AD000101A93FBF0F3DDF82490209820EE8C1A66
:102AE0007AEE600A60EE8C0AFDEEE00ABDEEC11AD5
:102AF00010EE908AB9F1000F11EE102A98FBF0F851
:102B00003FF71BAEDDF828E0DDF880A0704606E652
:102B10002DE9F047BDF920E00A9DDDF82CC00C98A6
:102B20008A460EFB0C54BAF80060BDF92410BCF1C3
:102B3000000F22443746B046B14611D48C450FDA17
:102B4000002D04D47545BCBF147833F814606C1C98
:102B500006D4744504DA04001CBF547833F81470AA
:102B60001CF1010C0D9C16D48C4514DA210012D0F6
:102B7000002D05D47545BCBF12F80E1033F8118036
:102B80006D1C08D4754506DA010004D0511C11F8FB
:102B90000E2033F812900546102DB8BF102C07DB1D
:102BA00040F2FB12DA49DB480CF048FBAFF300803F
:102BB000300414FB05F100F0FC6026F4FC662A19D1
:102BC0003B0449050643520003F0FC6327F4FC670D
:102BD000090EC2F120021F43C1EB45008A1847438A
:102BE00002FB06774FEA084202F0FC6228F4FC6020
:102BF00040EA0208C1EB440000FB08784FEA0942B2
:102C000002F0FC6229F4FC60104301FB00814A0DD4
:102C10004FF61F0002F4FC6200EA51111143AAF8BA
:102C20000010BDE8F08700002DE9F04F87B00D4699
:102C3000DDF854E0DDF858A0DDF85C80DEF800B087
:102C4000DEF804E0189FDDF864900BEB4A0A0EFBF7
:102C500008F80AEB480ED7F804B0D7F800801446FD
:102C60001846C9F1FF0A109EDDF844C0129B139963
:102C7000149A0BF1040B5FFA8AFA002DCDF80CB010
:102C8000CDF814A0CDF80090DFEDA33A01DC002CC4
:102C900004DD019506941096189702E001F0C8BA79
:102CA0001098189DEE6804963446189EB7680297EF
:102CB00000283D460CF5004C03F5004314DD2EB210
:102CC00027B25FEA2C4B4FEA234A06D4B34504DA15
:102CD000BAF1000F01D4BA4506DBD318401E002814
:102CE0008C440EF1020EECDC002868D0471E02FB7B
:102CF0000736361401FB07C73F1424B200F1A38046
:102D00002DB2AF4280F29F80002E00F19C80A6423F
:102D100080F29980002852DD13910399029C059E50
:102D2000DDF8009013FB24F404EB2C44D31818F8BE
:102D3000045005EB45054C19BEF8005027784FEAC2
:102D4000C50A5FFA8AFA06FB0AFA09FB07A74FEAE7
:102D5000D50B2D0A94F80190DDF800A0A4780BF0B3
:102D6000FC0B05F0F80506FB0BFB75430AFB09B9E4
:102D70000AFB04552C04240E14FA85F44FEA094585
:102D80002D0E15FA89F5641C6D1C24042D04240EE7
:102D90002D0E2402ED0004F4784405F4FC652C4368
:102DA0003D042D0E15FA87F56D1C2D0454EAD564EB
:102DB0002EF8024B401E139CA444AFD103910198FE
:102DC00000287FF76BAFF0EE621AB0EE432A30EEC8
:102DD000040AF7EE002A401E70EEA40A82EE803A42
:102DE000019031EE051A63EE202A23EE013A109885
:102DF000109A61EEA35A72EEE11A61EEA31AFDEE8B
:102E0000E11A11EE901A91FBF0F1FDEEE55A15EE84
:102E100090CA62EE235A33EE422A22EE232ABDEEF6
:102E2000C22A12EE100A90FBF2F20198FDEEE55A6A
:102E3000002815EE903A3FF733AF0698019D109E9B
:102E4000189F044623E70028B9DD139103994FEA40
:102E50002C441D14401E049E002C51D4029FBC42E1
:102E60004EDA002D4CD4B5424ADA02AEB6F9007003
:102E7000DDF8009017FB054418F80440BEF8007018
:102E8000059D04EB44040C444FEAC70A26785FFA18
:102E90008AFA05FB0AFA09FB06A64FEAD70B3F0A96
:102EA00094F80190DDF800A0A4780BF0FC0B07F07B
:102EB000F80705FB0BFB6F430AFB09B90AFB047714
:102EC0003C044FEA0945240E2D0E14FA87F415FA36
:102ED00089F5641C6D1C24042D04240E2D0E24027F
:102EE000ED0004F4784405F4FC652C4335042D0E04
:102EF00015FA86F56D1C2D0454EAD564AEF8004031
:102F0000D318139C00280EF1020EA4449FD155E75C
:102F100050EE0108D8FC0108000080472DE9F04F71
:102F20009E4685B00C46DDF84CC0149EDCF800705F
:102F3000159D169BDDF83880DDF83C90DDF840A04B
:102F4000119907EB4606DCF804707D43104606EB4A
:102F5000450C129A1E680296DFED6A3A5F683E1DC4
:102F6000002C019601DC002803DD049016937046C6
:102F700002E0FEF73FBA4046169DED6803952B46EA
:102F8000169DAE6800960028B64609F500490AF578
:102F9000004A14DD5FEA29471DB24FEA2A4607D4EA
:102FA0000FFA8EFB5F4503DA002E01D4AE4206DB3A
:102FB000401E0028894492440CF1020CEADC90B3D4
:102FC000461E02FB06A52D1401FB069636141BB205
:102FD00066D40FFA8EF7BE4262DA002D60D49D42AD
:102FE0005EDA00281FDD9646029A019B009D1AFBBF
:102FF00025F505EB29458944565D06EB46069D19E6
:10300000AF786E783F02F60007F4784706F4FC6666
:103010002D78374347EAD507401E2CF8027BF2444F
:10302000E4D102920193002CA3DDF0EE621AB0EE1F
:10303000432A30EE040AF7EE002A70EEA40A82EE6C
:10304000803A31EE051A63EE202A23EE013A61EE52
:10305000A35A72EEE11A61EEA31AFDEEE55AFDEEF7
:10306000E11A15EE909A11EE900A73EE421A61EE93
:10307000A31A641E62EE235A90FBF8F1FDEEE11AEA
:10308000FDEEE55A11EE900A002C15EE90AA90FB89
:10309000F8F23FF770AFDDF810E0169B704662E77C
:1030A0000028C0DD9646029A019B4FEA2945401E42
:1030B000039F002D4FEA2A461DD4DDF800B05D4580
:1030C00019DA002E17D4BE4215DABDF9007017FBCD
:1030D0000655555D05EB45055D19AE786F783602EE
:1030E000FF0006F4784607F4FC672D783E4346EA75
:1030F000D506ACF8006000280CF1020C8944F244BB
:10310000D3D18EE7000080472DE9F14F2DED0A8BDA
:1031100090B08946DDF8A4C02A9E2B9DDCF800A063
:10312000DCF804C0DDF8B0800AEB46060CFB05F5C0
:1031300010469E4606EB450C249F2599269A279B10
:10314000289CD8F800600896B0EE408AD8F8045061
:103150002E1D0796B9F1000F9DF8B450C5F1FF057B
:10316000EDB20D95F0EE608A9DF8B4500A95B0EE80
:10317000419AF0EE629AB0EE43AAF0EE44AAB0EEA5
:1031800064BAF0EE45BA9FED05CA01DC002807DD00
:103190000E90CDF82C907046249705E000008047F3
:1031A00010B001F096BF2498D8F80CE0D8F8089039
:1031B000002828DD0FFA89F6751C0195761E009609
:1031C0000FFA8EF70D141614002D09D4DDF800B097
:1031D0005D4505DA002E03D4A7F1010A564512DB3E
:1031E0006D1C09D4DDF804B05D4505DA761C03D406
:1031F0007D1CAE42C0F249815918A218401E002819
:103200000CF1020CDEDC002800F0A982451E04FB54
:1032100005273F1403FB05152D140FFA8EF600F158
:1032200034810FFA89F9A9F101094D4580F22D8108
:10323000002F00F12A81751EAF4280F226810028FE
:1032400040F38D822591914627932894CDF8B08044
:10325000CDF824C006904FEA293000F00F082C98D2
:10326000259A8168089809B2121419FB2123C21803
:103270001078079C259F00EB4000261802960196C7
:103280003F13069B07F00F075B1E38003546069379
:1032900000F05C8212F8013F03EB4303E4185FEA9D
:1032A000080002940BD0501810F8012D07994078AF
:1032B00002EB42028D1800EB40000A180192BB4657
:1032C00001990A7802988DF80220C2462B788DF871
:1032D0000130BBF1100F01788DF800103478B8BFC1
:1032E000BAF1100F09DBDFF8481DDFF8480D40F296
:1032F00019220BF0A3FFAFF300801AFB0BF005902F
:1033000005989DF80030C0EB071189B2C0EB081298
:10331000049192B20392C0F580770499039A7F1AC0
:10332000BF1ABFB2594307FB04149DF8011002FBFA
:10333000014401999DF8022000FB02444A7802985A
:103340008DF80220240469788DF80110BBF1100F6C
:1033500041788DF8001096F80180B8BFBAF1100FCF
:1033600009DBDFF8CC1CDFF8CC0C40F219220BF0A3
:1033700065FFAFF3008004999DF80030039A05982B
:10338000594307FB08189DF8011002FB01889DF8BE
:10339000022000FB0288019881788DF801104FEA25
:1033A0000848AA7802998DF800208D78B678BBF18C
:1033B000100FB8BFBAF1100F09DB40F21922DFF885
:1033C000701CDFF8700C0BF039FFAFF30080099B25
:1033D00004991B88039ADDF834C0DDF828A005980D
:1033E0004D439DF800104FEAC30E07FB06555FFAE8
:1033F0008EFE02FB0155240E0CFB0EFE9DF80120F3
:103400000AFB04EEDC0800FB02551B0A04F0FC0476
:103410002D0403F0F8034FEA18680CFB04F42D0E9A
:103420000CFB03F30AFB08480AFB053319044FEAB7
:103430000840090E000E11FA83F110FA88F0491CB9
:10344000401C09040004090E000E0902C00001F42A
:10345000784100F4FC6001434FEA0E40000E10FA80
:103460008EF0401C000451EAD0610998801C09903C
:1034700020F8021D2798259941182591069828992A
:10348000002889447FF4E7AE5BE1002840F36781C0
:103490002591269227932894CDF8B080CDF824C0AA
:1034A0000C90259A259826990C9B121302F00F0870
:1034B000269A121302F00F092C9A00140914D268EC
:1034C0005B1E00280C9300F10E812C9B9B685F1EF5
:1034D000B84280F20881002900F10581541EA14202
:1034E00080F201811BB2089A13FB0100104404789A
:1034F000079904EB44040E195FEA08020196354669
:10350000374614D010F8012F02EB42028C185FEA04
:103510000901019413D0184410F8012D407807993F
:1035200002EB420200EB40008D180F1807E05FEA43
:10353000090104D0C05C079900EB40000D183978F0
:1035400001988DF80210C3462A788DF80120CA46EA
:1035500001788DF80010BBF1100F3478B8BFBAF1C4
:10356000100F09DBDFF8C81ADFF8C80A40F2192289
:103570000BF064FEAFF300801AFB0BF0049004988C
:10358000C0EB081189B2C0EB0912039192B202920A
:10359000C0F580790399029AA9EB01039B1A1FFADF
:1035A00083F99DF80030594309FB04149DF801107C
:1035B00002FB014479789DF802208DF8021000FB8F
:1035C00002446A7801988DF80120240441788DF82E
:1035D0000010BBF1100F96F80180B8BFBAF1100FC0
:1035E00009DBDFF84C1ADFF84C0A40F219220BF025
:1035F00025FEAFF3008003999DF80030029ABF7852
:103600000498594309FB08189DF8011002FB018832
:1036100001999DF8022000FB0288A8788DF800002F
:103620008D78B6784FEA0848BBF1100FB8BFBAF1F1
:10363000100F09DB40F21922DFF8F419DFF8F40962
:103640000BF0FCFDAFF30080099B1B880399DDF8AC
:1036500034C0029ADDF828A004984FEAC30E5FFA3E
:103660008EFE4D439DF80010240E0CFB0EFE09FB50
:1036700006550AFB04EE02FB0155DC0800FB075768
:103680001B0A04F0FC043F0403F0F8034FEA186837
:103690000CFB04F43F0E0CFB03F30AFB08480AFB87
:1036A000073319044FEA0840090E000E11FA83F19E
:1036B00010FA88F0491C401C09040004090E000E91
:1036C0000902C00001F4784100F4FC6001434FEAB4
:1036D0000E40000E10FA8EF0401C000451EAD0613A
:1036E000099801801EE0471C1CD42C9B9B685C1C25
:1036F000A74217DA4F1C15D4541CA74212DA12B293
:103700001BB20391029001920093CDF81490CDF872
:1037100010809DF8B440079B089A09991A9806945E
:1037200000F062F80998811C0991259827990818DA
:10373000259028992698081826900C9800287FF440
:10374000B0AEDDF8B080DDF824C008E05FEA080024
:103750003FF4B5AD515C01EB41016518AFE50B9845
:1037600000287FF71DAD38EE2A8AB7EE001AB0EEBA
:10377000690AF0EE4A0A78EE8B8A39EE2B9A81EECE
:10378000081A411E61EE289A21EE09AA0B9120EE3B
:103790000C1A39EEC00A20EE0C0ABDEEC11ABDEEBD
:1037A000C00A249CDDF82C9011EE101A10EE103A8D
:1037B00020EE8C1A7AEE600A60EE8C0A93FBF4F32A
:1037C000FDEEE00A2498BDEEC11A10EE904AB9F160
:1037D000000F11EE102A94FBF0F43FF7E4ACDDF893
:1037E00038E0249F7046D1E42DE9F34F89B00DF104
:1037F00008090A9D2F88BDF950E0BDF954001699BB
:10380000179E189C3D0A05F0F808FD0805F0FC0518
:10381000FF0608953F0E07970EFB061C089D2D021C
:1038200045EA08453D430295002E02AD62440195EC
:1038300002AF18D4864216DA002909D4714507DA96
:1038400092F800A00AEB4A0A03EB0A0BCDF804B089
:1038500011F1010C07D4F44505DA24B192F8019076
:1038600009EB49099944761C19D4864217DA9DF868
:103870006400A0B1002906D4714504DA12F80E00E4
:1038800000EB40001F18491C09D4714507DA2000DD
:1038900005D0501C10F80E1001EB41015D182A787C
:1038A00001988DF80220102C39788DF8011099F8C4
:1038B00000208DF8002090F800A0BCBF9DF86400A7
:1038C000102809DBDFF86817DFF8680740F21922D3
:1038D0000BF0B4FCAFF3008020469DF86420069204
:1038E00012FB00F0059005989DF86420C0EB0411D0
:1038F00089B20491C0EB02139BB204990393C0F503
:103900008076039A9DF80030761AB61AB6B25943FB
:1039100006FB0A1A9DF8011002FB01AA9DF802207D
:1039200000FB02AA68788DF802004FEA0A4A79780B
:1039300001988DF80110102C99F801208DF80020C5
:1039400090F801B0BCBF0698102809DBDFF8E0163C
:10395000DFF8E00640F219220BF070FCAFF30080B4
:1039600004999DF80030039A0598AD78BF7899F8CE
:103970000290594306FB0B1B9DF8011002FB01BB93
:103980009DF8022000FB02BB019881788DF80010A1
:103990004FEA0B4B102CBCBF9DF86400102809DBCC
:1039A00040F21922DFF88816DFF888060BF046FC93
:1039B000AFF30080049A1A98039B0599DDF81CC0A8
:1039C000DDF820E002FB09F9C0F1FF04E4B24FEAA0
:1039D0001A6A04FB0CFC10FB0ACA9DF800C006FB27
:1039E0000C9903FB079701FB05754FEA1B6B04FB62
:1039F0000EFE2D0410FB0BEB2D0E14FB08F810FB34
:103A000005884FEA0840000E10FA88F14FEA0B4093
:103A1000000E10FA8BF0491C401C09040004090E2A
:103A2000000E0902C00001F4784100F4FC6001437B
:103A30004FEA0A40000E10FA8AF0401C000451EAD6
:103A4000D0610A980180FDF7C3BD00002DE9F14F58
:103A50002DED0A8B8CB08946259F269EDDF89C8033
:103A6000D7F800A07F68289D0AEB460607FB08F7F9
:103A700010469E4606EB470CDDF880B02199229A4D
:103A8000239B249C2E680796B0EE408A6F683E1DEB
:103A9000B9F1000FF0EE608AB0EE419AF0EE629A52
:103AA000B0EE43AAF0EE44AAB0EE64BAF0EE45BA26
:103AB00006969FED06CA01DC002809DD0B90CDF8C3
:103AC00024907046CDF880B006E000BF000080472B
:103AD0000CB001F0FEBA2098D5F80CE0D5F80890AB
:103AE00000282ADD0FFA89F6771C0197761E0096CA
:103AF0000FFA8EFB4FEA21481614B8F1000F08D4D4
:103B0000009FB84505DA002E03D4ABF10107BE4291
:103B100013DB18F1010809D4019FB84506DA761CB9
:103B200004D40BF10107BE42C0F214815918A21847
:103B3000401E00280CF1020CDCDC002800F0318271
:103B4000A0F1010804FB082B03FB08185FEA2848D2
:103B50000FFA8EF64FEA2B4700F1FC800FFA89F935
:103B6000A9F10109C84580F2F580002F00F1F2802B
:103B7000761EB74280F2EE80002840F31282219137
:103B80009146239324942895CDF820C00A90289834
:103B9000219A8168079809B2121419FB2123C218CF
:103BA000219F1578069C0A9B3F1307F00F0705EB32
:103BB00045054FEA29362C445B1E002F06F00F0600
:103BC0000294254601940A9300F0E28112F8013F25
:103BD000069803EB4303C01802905EB1501810F82A
:103BE000012D0699407802EB42028D1800EB40004F
:103BF0000A180192B84601990A7802988DF80220B5
:103C0000B3462B788DF80130B8F1100F01788DF89C
:103C1000001094F800A0B8BFBBF1100F09DBDFF86B
:103C20001014DFF84C0C40F219220BF007FBAFF335
:103C300000801BFB08F0059005989DF80030C0EB54
:103C4000071189B2C0EB0612049192B20392C0F53B
:103C500080760499039A761AB61AB6B2594306FBCF
:103C60000A1A9DF8011002FB01AA01999DF8022091
:103C700000FB02AA4A7802988DF802204FEA0A4A0D
:103C800069788DF80110B8F1100F41788DF80010A7
:103C90006778B8BFBBF1100F08DBE549DFF8D00B40
:103CA00040F219220BF0CAFAAFF3008004999DF894
:103CB0000030039A0598594306FB07179DF8011039
:103CC00002FB01779DF8022000FB027701988178C2
:103CD0008DF801103F04AA7802998DF800208D78A4
:103CE000A478B8F1100FB8BFBBF1100F08DB40F299
:103CF0001922CF49DFF8780B0BF0A0FAAFF3008060
:103D00000499039A05984D439DF8001006FB04554D
:103D100002FB01559DF8012000FB02552D042D0EDC
:103D20003F0E08982D02FF0005F4784507F4FC6764
:103D3000801C2F43089047EADA6120F8021D23987F
:103D40002199411821910A982499002889447FF4E7
:103D50001EAF19E1002840F3248121912292239380
:103D600024942895CDF820C00A90289A2198229969
:103D7000219E229F0A9BD2680014091436133F1318
:103D80005B1E002806F00F0607F00F070A9300F1EC
:103D9000D280289B9B685D1EA84280F2CC800029BF
:103DA00000F1C980541EA14280F2C5801BB2079A5F
:103DB00013FB010010440478069904EB44040C44FE
:103DC0000194A146254696B110F8012F02EB42025C
:103DD0008A1801928FB1184410F8012D407802EB37
:103DE000420200EB400001EB02090D1805E027B18B
:103DF000C05C00EB400001EB0009297801988DF8C8
:103E00000210B04699F800208DF80120BB460178D9
:103E10008DF80010B8F1100F94F800A0B8BFBBF1F6
:103E2000100F08DB8249DFF8480A40F219220BF034
:103E300005FAAFF300801BFB08F0049004989DF88E
:103E40000030C0EB061189B2C0EB0712039192B2A9
:103E50000292C0F580760399029A761AB61AB6B223
:103E6000594306FB0A1A9DF8011002FB01AA697862
:103E70009DF802208DF8021000FB02AA99F801209B
:103E800001988DF801204FEA0A4A41788DF8001018
:103E9000B8F1100F6778B8BFBBF1100F08DB6449A9
:103EA000DFF8CC0940F219220BF0C8F9AFF300801B
:103EB00003999DF80030029A0498AD7899F8029021
:103EC000594306FB07179DF8011002FB01779DF887
:103ED000022000FB0277019881788DF800103F04E2
:103EE000A478B8F1100FB8BFBBF1100F08DB40F297
:103EF00019224F49DFF878090BF0A0F9AFF30080E1
:103F000003999DF80030029A0498594306FB041463
:103F100002FB094900FB05952D042D0E3F0E2D02D5
:103F2000FF0005F4784507F4FC6708982F4347EA3B
:103F3000DA61018019E0451C17D4289B9B685C1C42
:103F4000A54212DA4D1C10D4541CA5420DDA059777
:103F5000049612B21BB20391029001920093079A49
:103F6000069B0899169800F067F80898811C08913C
:103F700021982399081821902499229808182290B2
:103F80000A9800287FF4F1AE289DDDF820C008E0F3
:103F9000002E3FF42FAE515C069801EB410145180D
:103FA00028E6099800287FF793AD38EE2A8AB7EE05
:103FB000001AB0EE690AF0EE4A0A78EE8B8A39EE02
:103FC0002B9A81EE081A411E61EE289A21EE09AA69
:103FD000099120EE0C1A39EEC00A20EE0C0ABDEE53
:103FE000C11ABDEEC00A209CDDF8249011EE101A13
:103FF00010EE103A20EE8C1A7AEE600A60EE8C0A0F
:1040000093FBF4F3FDEEE00A2098BDEEC11A10EE2A
:10401000904AB9F1000F11EE102A94FBF0F43FF72B
:104020005AADDDF82CE0DDF880B0704644E50000C4
:10403000F4EF0108ECFC01082DE9F34F85B0BDF960
:1040400040B0DDF848E0139F0698BDF944100088A1
:10405000DDF850900BFB07E52A44C508060A05F079
:10406000FC0506F0F8062D0245EA0645C00645EABD
:104070001065002F019501AE0DF1040A0DF1040841
:1040800001AC17D48F4215DABEF1000F05D4DE451E
:1040900003DA107800EB40001E181EF1010009D46D
:1040A000584507DA5FEA090004D0507800EB400079
:1040B00003EB000A7F1C159D1CD48F421ADA2800DE
:1040C00018D0BEF1000F07D4DE4505DA12F80B0058
:1040D00000EB400003EB00081EF101000AD4584534
:1040E00008DA5FEA090005D0501C10F80B1001EB4C
:1040F00041015C1822788DF80220CB4698F8001018
:104100008DF80110BBF1100F9AF800208DF80020F7
:104110003778B8BF102D09DBDFF85817DFF85007E4
:1041200040F219220BF08AF8AFF30080284610FB0A
:104130000BF004900498C0EB091189B20391C0EB15
:1041400005139BB203990293C0F58079029AA9EBFB
:1041500001039B1A1FFA83F99DF80030594309FBAC
:1041600007179DF8011002FB01779DF8022000FB64
:1041700002773F128DF80370BBF1100F60788DF855
:10418000020098F801208DF801209AF801108DF8AE
:1041900000107778B8BF102D09DBDFF8D816DFF8EC
:1041A000D00640F219220BF049F8AFF300800399D2
:1041B0009DF80030029A0498A47898F802809AF842
:1041C00002A0B678594309FB07179DF8011002FBBE
:1041D00001779DF8022000FB02773F04BBF1100F2E
:1041E000B8BF102D09DB40F21922DFF88816DFF87E
:1041F00080060BF023F8AFF300800399029A04982D
:1042000001FB0AFA09FB06AA02FB08A800FB0484CA
:104210002404240E3F0E2402FF0004F4784407F423
:10422000FC679DF803000699274347EAD0070F80F3
:1042300007B0BDE8F08F00002DE9F04F85B00D46C6
:10424000DDF84CE0149CDDF85490DEF800B0DEF8A8
:1042500004E0169F0BEB44040EFB09F91046984648
:1042600004EB490E7C680E9EDDF83CC0109B119952
:10427000129ADDF85CA0D7F80090241D002D02945E
:10428000DFEDB03A01DC002807DD049000954046E0
:104290000E9616978DF85CA002E0FDF7ABB80E986D
:1042A000169DEE680396B246169EB76801970028E1
:1042B0003D460CF5004C03F5004313DD2EB20FFA1A
:1042C0008AF71C145FEA2C4B05D4B34503DA002CA3
:1042D00001D4BC4206DBD318401E00288C440EF1EA
:1042E000020EEEDC002876D0471E02FB073636149D
:1042F00001FB07C73F140FFA8AF400F1B3802DB217
:10430000AF4280F2AF80002E00F1AC80A64280F276
:10431000A98000285FDD9246029A1191019913FB52
:1043200021F101EB2C41A0F1010019F8015052F8E4
:104330002560310E47D09DF85C70BEF8005017FB29
:1043400001F101EB1121491C09044FEA1168C8F180
:10435000FF01EC00C9B2E4B2F7B211FB04F418FBA0
:1043600007474FEAD50B34040BF0FC0B2D0A240E43
:1043700011FB0BFB360205F0F80518FB04B4360EF2
:1043800011FB05F518FB06552904090E11FA85F1F4
:1043900025042D0E15FA84F5491C6D1C09042D0405
:1043A000090E2D0E0902ED0001F4784105F4FC65BB
:1043B00029433D042D0E15FA87F56D1C2D0451EA95
:1043C000D561AEF80010002811990EF1020E8C4450
:1043D0005344A3D10292009800287FF75EAFF0EE1D
:1043E000621AB0EE432A30EE040AF7EE002A401EAD
:1043F00070EEA40A82EE803A009031EE051A63EE68
:10440000202A23EE013A0E980E9A61EEA35A72EE1C
:10441000E11A61EEA31AFDEEE11A11EE901A91FB7A
:10442000F0F1FDEEE55A15EE90CA62EE235A33EE36
:10443000422A22EE232ABDEEC22A12EE100A90FB77
:10444000F2F20098FDEEE55A002815EE903A3FF79B
:1044500026AFDDF810800E9E169F9DF85CA00546E5
:10446000404610E70028B6DD129211919DF85CA03D
:10447000029A4FEA2C411D14401E039E002958D475
:10448000019FB94255DA002D53D4B54251DA01AE3D
:10449000B6F9007017FB051119F8011052F82160E8
:1044A000310E46D01AFB01F101EB1121491CBEF877
:1044B00000500904090EC1F1FF07EC00FFB2E4B29D
:1044C0005FFA86F817FB04F411FB08484FEAD50B96
:1044D00034040BF0FC0B2D0A240E17FB0BFB3602E9
:1044E00005F0F80511FB04B4360E17FB05F511FBBA
:1044F00006552904090E11FA85F125042D0E15FA29
:1045000084F5491C6D1C09042D04090E2D0E0902A9
:10451000ED0001F4784105F4FC6529434FEA0845B4
:104520002D0E15FA88F56D1C2D0451EAD561AEF8F3
:1045300000100EF1020E129D1199EB1800288C4408
:1045400097D147E7000080472DE9F04F85B00D4631
:10455000DDF84CE0DDF85090DDF85480DEF80040E6
:10456000DEF804E0169F04EB49040EFB08F89246BF
:10457000184604EB480E7C680E9EDDF83CC0109B8C
:104580001199129AD7F80080241D002D0294DFEDB6
:10459000B73A02DCBAF1000F05DD0095CDF810A0A6
:1045A0000E96169702E0FCF725BF0E98169DEE6852
:1045B0000396B246169EB768019700283D460CF553
:1045C000004C03F5004313DD2EB20FFA8AF71C14DA
:1045D0005FEA2C4B05D4B34503DA002C01D4BC426E
:1045E00006DBD318401E00288C440EF1020EEEDCD0
:1045F000002800F0F680471E02FB0736361401FB48
:1046000007C73F140FFA8AF427D42DB2AF4224DA39
:10461000002E22D4A64220DA002840F3E280DDF802
:1046200008A01191019913FB21F101EB2C41401ECF
:1046300018F801505AF82550290EFF2940F08680BD
:10464000290A6E0901F4784106F4FC663143C5F38A
:10465000C4052943AEF80010BAE0002840F3C18039
:10466000DDF808A011914FEA2C411D14401E039E55
:10467000002961D4019FB9425EDA002D5CD4B542B5
:104680005ADA01AEB6F9007017FB051118F80110DF
:104690005AF82150290EFF290CD1290A6E0901F47C
:1046A000784106F4FC663143C5F3C4052943AEF8EE
:1046B000001041E000293FD0BEF80060C1F1FF07C3
:1046C000F400FFB2E4B25FFA85F917FB04F411FBC2
:1046D00009494FEAD60B2C040BF0FC0B360A240ECA
:1046E00017FB0BFB2D0206F0F80611FB04B42D0E90
:1046F00017FB06F611FB0566370421043F0E090E71
:1047000017FA86F611FA84F1761C491C360409045E
:10471000360E090E3602C90006F4784601F4FC6133
:104720000E434FEA0941090E11FA89F1491C0904A7
:1047300056EAD166AEF80060D318119900280EF140
:10474000020E8C448FD1CDF808A04AE000293FD05A
:10475000BEF80060C1F1FF07F400FFB2E4B25FFAF7
:1047600085F917FB04F411FB09494FEAD60B2C0419
:104770000BF0FC0B360A240E17FB0BFB2D0206F088
:10478000F80611FB04B42D0E17FB06F611FB0566A7
:10479000370421043F0E090E17FA86F611FA84F148
:1047A000761C491C36040904360E090E3602C9006F
:1047B00006F4784601F4FC610E434FEA0941090E04
:1047C00011FA89F1491C090456EAD166AEF8006075
:1047D000D318119900280EF1020E8C447FF422AFF9
:1047E000B1E7009800287FF7DEAEF0EE621AB0EE77
:1047F000432A30EE040AF7EE002A401E70EEA40AA7
:1048000082EE803A009031EE051A63EE202A23EE04
:10481000013A0E980E9A61EEA35A72EEE11A61EE19
:10482000A31AFDEEE11A11EE901A91FBF0F1FDEEE4
:10483000E55A15EE90CA62EE235A33EE422A22EE72
:10484000232ABDEEC22A12EE100A90FBF2F2009863
:10485000FDEEE55A002815EE903A3FF7A6AE049813
:10486000009D0E9E169F824694E600000000804741
:10487000ECFC0108F4EF01082DE9F14F2DED0A8B56
:104880008EB00E46DDF89CC0289DDDF8A490DCF8C3
:1048900000A0DCF804C02A9C0AEB45050CFB09F9D2
:1048A0001046984605EB490C229F2399249A259B94
:1048B000DDF898E025680995002E65689DF8ACA0A4
:1048C000CDF828A005F1040BB0EE408AF0EE608A26
:1048D000B0EE419AF0EE629AB0EE43AAF0EE44AA2E
:1048E000B0EE64BAF0EE45BACDF81CB09FED05CA43
:1048F00001DC002808DD0D900B9640469DF8AC9039
:10490000229703E000008047E2E32298E768ADF8D1
:1049100000700028A6682CDD35B26F1C02976D1E52
:104920000195BDF900704FEA21481514B8F1000F48
:1049300009D4DDF804B0D84505DA002D03D4A7F179
:10494000010A554515DB18F10108BA460AD4DDF80D
:1049500008B0D84506DA6D1C04D40AF1010A5545A1
:10496000C0F2A3815918401E002872440CF1020CB9
:10497000D9DC002800F06783451EBDF900700EFBEE
:10498000052803FB05152D144FEA284800F18D81F9
:1049900036B2761EB54280F28881B8F1000F00F180
:1049A00084817F1EB84580F28081002840F34B83CC
:1049B000239124922593CDF898E02A94CDF820C035
:1049C00002908DF8AC902A98239A8068249B0999CC
:1049D00000B2121413FB20221144079E0B7856F8E4
:1049E0002380239F249C029B4FEA18623F1301926D
:1049F00007F00F0724135B1E3A0004F00F04029324
:104A000000F0168311F8013F56F823502A0E2300B8
:104A10008DF8022010D0084410F8012D56F822A07D
:104A2000079A4FEA1A618DF80010407852F820B0CA
:104A30004FEA1B618DF801103E46A146102EB8BF0B
:104A4000B9F1100F09DB40F21922DFF87019DFF815
:104A500070090AF0F3FBAFF3008019FB06F0059034
:104A60000598019BC0EB071189B2C0EB04120491B9
:104A700092B20392C0F580770499039A9DF80240A0
:104A80007F1ABF1ABFB2614307FB03119DF80030C4
:104A90009DF8014002FB031100FB04142404240EC2
:104AA00000F0F3800198C0B2FF2818D0019928F0D7
:104AB000FF20484308F47F42030A4A4323F0FF23C0
:104AC000181802EB122100F1011001F58071000AA3
:104AD000090A20F0FF2001F47F4141EA00089DF817
:104AE0000200FF2818D0014625F0FF20484305F4B6
:104AF0007F45020A4D4322F0FF22101805EB1521D5
:104B000000F1011001F58071000A090A20F0FF2070
:104B100001F47F4141EA00059DF80000FF2819D00B
:104B200001462AF0FF200AF47F42484301FB02F3CA
:104B3000020A22F0FF22101803EB132100F10110EA
:104B400001F58071000A090A20F0FF2001F47F417D
:104B500041EA000A9DF80100FF2819D001462BF018
:104B6000FF200BF47F42484301FB02F3020A22F0CC
:104B7000FF22101803EB132100F1011001F58071E1
:104B8000000A090A20F0FF2001F47F4141EA000BEE
:104B9000102EB8BFB9F1100F09DB40F22E22DFF85A
:104BA0002418DFF824080AF049FBAFF300800499C9
:104BB000039A059825F0FF2628F0FF234E4307FBB4
:104BC000036305F47F452AF0FF264D4302FB0633BD
:104BD0000AF47F4A2BF0FF260BF47F4B00FB0633D1
:104BE00008F47F4607FB065502FB0A559DF8AC20EA
:104BF0000A9E00FB0B550898018812FB04F000EB9D
:104C00001022521C1B0A2D0A121223F0FF2305F456
:104C10007F45C2F1FF02CC001D43D2B20A9BE4B231
:104C2000E8B212FB04F403FB0040CC08090A2B0491
:104C300004F0FC0401F0F8011B0E12FB04F42D0C2F
:104C400012FB01F106FB034306FB051529041A04B8
:104C5000090E120E11FA85F112FA83F2491C521C48
:104C600009041204090E120E0902D20001F478415F
:104C700002F4FC6211430204120E12FA80F0401C8E
:104C8000000451EAD061089801800899269A881C8E
:104C90000890239925984118239102982499511836
:104CA000002824917FF48FAEBCE1002840F3CB8133
:104CB000239124922593CDF898E02A948DF8AC9016
:104CC000CDF820C00C902A9A23982499239C249FE5
:104CD0000C9BD2680014091424133F135B1E002898
:104CE00004F00F0407F00F070C9300F16D812A9B6D
:104CF0009B685E1EB04280F26781002900F16481EA
:104D0000561EB14280F260811BB2099A13FB01006A
:104D10001044079990F8009051F829804FEA1861E3
:104D2000220001911CD0079910F8012F51F8225050
:104D3000290E3A008DF802101CD01844079910F87B
:104D4000012D51F822A0079A4FEA1A618DF8001040
:104D5000407852F820B04FEA1B618DF8011009E04D
:104D6000390007D00799C05C51F820A04FEA1A61BA
:104D70008DF800102646B946102EB8BFB9F1100FB5
:104D800009DB40F21922DFF83416DFF834060AF0A6
:104D900055FAAFF3008019FB06F004900498019BCC
:104DA000C0EB041189B2C0EB0712039192B20292D8
:104DB000C0F580770399029A9DF802407F1ABF1AC6
:104DC000BFB2614307FB03119DF800309DF801401D
:104DD00002FB031100FB04142404240E00F01381D1
:104DE0000198C0B2FF2818D0019928F0FF2048434D
:104DF00008F47F42030A4A4323F0FF23181802EB0A
:104E0000122100F1011001F58071000A090A20F059
:104E1000FF2001F47F4141EA00089DF80200FF28CD
:104E200018D0014625F0FF20484305F47F45020ACB
:104E30004D4322F0FF22101805EB152100F101105F
:104E400001F58071000A090A20F0FF2001F47F417A
:104E500041EA00059DF80000FF2819D001462AF01C
:104E6000FF200AF47F42484301FB02F3020A22F0CA
:104E7000FF22101803EB132100F1011001F58071DE
:104E8000000A090A20F0FF2001F47F4141EA000AEC
:104E90009DF80100FF2819D001462BF0FF200BF4EC
:104EA0007F42484301FB02F3020A22F0FF2210185E
:104EB00003EB132100F1011001F58071000A090ACA
:104EC00020F0FF2001F47F4141EA000B102EB8BF13
:104ED000B9F1100F09DB40F22E22DFF8E814DFF8F9
:104EE000E8040AF0ABF9AFF300800399029A049842
:104EF00025F0FF2628F0FF234E4307FB036305F44C
:104F00007F452AF0FF264D4302FB06330AF47F4A11
:104F10002BF0FF260BF47F4B00FB063308F47F4693
:104F200007FB065502FB0A559DF8AC200A9E00FBC4
:104F30000B550898018812FB04F000EB1022521C5C
:104F40001B0A2D0A121223F0FF2305F47F45C2F13C
:104F5000FF02CC001D43D2B20A9BE4B2E8B212FBBE
:104F600004F403FB0040CC08090A2B0404F0FC0401
:104F700001F0F8011B0E12FB04F42D0C12FB01F1E1
:104F800006FB034306FB051529041A04090E120E3D
:104F900011FA85F112FA83F2491C521C0904120419
:104FA000090E120E0902D20001F4784102F4FC62EB
:104FB00011430204120E12FA80F0401C000451EA60
:104FC000D061089801801EE0461C1CD42A9B9B6877
:104FD00003F1010C664516DA4E1C14D402F10109E6
:104FE0004E4510DA12B21BB29DF8AC6006960391E2
:104FF000029001920093099A079B089918980597C7
:10500000049400F06AF80898811C08912398259967
:105010000818239026992498081824900C980028A2
:105020007FF451AE2A9C9DF8AC90DDF820C00AE0D8
:1050300022003FF401AD085C56F820A04FEA1A6147
:105040008DF80010F8E40B9800287FF75DAC38EE7F
:105050002A8AB7EE001A229EB0EE690AF0EE4A0ADA
:1050600078EE8B8A39EE2B9A81EE081A411E61EE9A
:10507000289A21EE09AA22980B9120EE0C1A39EEFB
:10508000C00A20EE0C0ABDEEC00A10EE103A93FBE7
:10509000F6F3BDEEC11A11EE101A20EE8C1A7AEE5C
:1050A000600A60EE8C0AFDEEE00A10EE906A96FB54
:1050B000F0FE0B9EBDEEC11A002E11EE102A3FF736
:1050C00024ACDDF83480229F8DF8AC90404610E48B
:1050D0000EB0BDEC0A8BBDE8F18F2DE9F24F86B022
:1050E000069EBDF940C01299139D3688BDF9440053
:1050F000149C0CFB05173A444FEA162B4FEAD60ACC
:10510000F6008DF8046000270026002D0BF0F80B48
:105110000AF0FC0AB846B94612D4854210DA0029D2
:1051200005D46145BCBF92F800E053F82E6011F140
:10513000010E05D4E64503DA14B1577853F8277009
:105140006D1CAE46159D16D4864514DA280012D083
:10515000002905D46145BCBF12F80C0053F820802B
:10516000491C08D4614506DA200004D0501C10F810
:105170000C1053F82190310E3A0E8DF803108DF873
:1051800002204FEA18614FEA19628DF801108DF87C
:105190000020102CB8BF102D07DB40F219228749E0
:1051A00087480AF04BF8AFF300802846214610FBF1
:1051B00001F20592059A9DF802E09DF803C0C2EB4A
:1051C00004139BB20493C2EB0514A4B2049B039492
:1051D000C2F58074039DE41A641BA4B203FB0EF3B2
:1051E00004FB0C339DF801C005FB0C359DF8003025
:1051F00002FB03521204120E029200F0DD809DF8B1
:1052000002309DF8032026F0FF2506F47F46554323
:1052100056432A0A22F0FF22551927F0FF225A434B
:1052200007F47F477B43170A27F0FF27BA1803EBE1
:10523000132306EB162602F1011203F5807305F124
:10524000011506F58076120A1B0A2D0A360A22F08D
:10525000FF2203F47F4325F0FF2506F47F4643EA4F
:10526000020735439DF8013028F0FF2208F47F46FD
:105270005A435E43130A23F0FF231A4406EB162316
:1052800002F1011203F58073120A1B0A22F0FF22B9
:1052900003F47F4343EA02089DF8003029F0FF221F
:1052A00009F47F465A435E43130A23F0FF231A444E
:1052B00006EB162302F1011203F58073120A1B0A92
:1052C00022F0FF2203F47F4343EA02091029B8BF0A
:1052D000102807DB40F22E223A493B4809F0AEFF86
:1052E000AFF3008004991698039B059A009127F06C
:1052F000FF2625F0FF2E4E4307F47F4704FB0E6E7A
:1053000005F47F454F4328F0FF2604FB057708F49A
:105310007F4103FB06EE03FB017729F0FF2609F42A
:105320007F4102FB06EE02FB0177029A9DF80430F2
:1053300010FB02F21104090E11FA82F2521C4FEA1C
:105340001E263F0A121226F0FF2607F47F47C2F1FD
:10535000FF023743D2B2F9B212FB03F33C0410FB55
:105360000131240E12FB0AFA10FB04AA3F0C12FBB7
:105370000BFB10FB07BB4FEA0B40000E10FA8BF241
:105380004FEA0A40000E10FA8AF0521C401C120428
:105390000004120E000E1202C00002F4784200F463
:1053A000FC6002430804000E10FA81F0401C000467
:1053B00052EAD06206980280FEF73ABFF4EF010885
:1053C000ECFC010880F0010800FD01082DE9F14F17
:1053D0002DED0A8B8CB00D46DDF894C0269EDDF8CD
:1053E0009C80DCF800A0DCF804C0289C0AEB460690
:1053F0000CFB08F810461F4606EB480CDDF88090C1
:105400002199229A239BDDF890E026680896002DCA
:10541000D4F804A00AF10406B0EE408AF0EE608AE7
:10542000B0EE419AF0EE629AB0EE43AAF0EE44AAD2
:10543000B0EE64BAF0EE45BA06969FED05CA01DCFF
:10544000002807DD0B9009953846CDF8809004E0E0
:10545000000080470CB03CE62098E568D4F808903E
:1054600000282CDD0FFA89F6771C0197761E00962E
:105470002FB24FEA21481614B8F1000F09D4DDF815
:1054800000B0D84505DA002E03D4A7F1010A56452D
:1054900015DB18F10108BA460AD4DDF804B0D84586
:1054A00006DA761C04D40AF1010A5645C0F28E8150
:1054B0005918401E002872440CF1020CD9DC002857
:1054C00000F03683A0F101080EFB08273F1403FB10
:1054D00008185FEA28482DB200F178810FFA89F99F
:1054E000A9F10109C84580F27181002F00F16E8198
:1054F0006D1EAF4280F26A81002840F3198321912A
:1055000022922393CDF890E02894CDF81CC002900D
:105510002898219A8068229B089900B2121413FBE4
:1055200020221144069D0B7855F82380219F229C50
:10553000029B4FEA18623F13019207F00F072413F2
:105540005B1E3A0004F00F04029300F0E68211F8AB
:10555000013F55F82360320E23008DF8022010D051
:10556000084410F8012D55F822A0069A4FEA1A6156
:105570008DF80010407852F820B04FEA1B618DF88A
:105580000110B9462546B9F1100FB8BF102D09DB3F
:1055900040F21922DFF8041CDFF8040C09F04EFE7B
:1055A000AFF3008015FB09F005900598019BC0EB57
:1055B000071189B2C0EB0412049192B20392C0F5B4
:1055C00080770499039A9DF802407F1ABF1ABFB2F0
:1055D000614307FB03119DF800309DF8014002FB79
:1055E000031100FB04142404240E00F0DF80019852
:1055F000C0B2FF2818D0019928F0FF20484308F4D2
:105600007F42030A4A4323F0FF23181802EB1221BA
:1056100000F1011001F58071000A090A20F0FF2055
:1056200001F47F4141EA00089DF80200FF2818D0EC
:10563000014626F0FF20484306F47F46020A4E4307
:1056400022F0FF22101806EB162100F1011001F5DF
:105650008071000A090A20F0FF2001F47F4141EA2D
:1056600000069DF80000FF2819D001462AF0FF200F
:105670000AF47F42484301FB02F3020A22F0FF22B0
:10568000101803EB132100F1011001F58071000ADD
:10569000090A20F0FF2001F47F4141EA000A9DF849
:1056A0000100FF2819D001462BF0FF200BF47F42A8
:1056B000484301FB02F3020A22F0FF22101803EB19
:1056C000132100F1011001F58071000A090A20F090
:1056D000FF2001F47F4141EA000BB9F1100FB8BF80
:1056E000102D09DB40F22E22DFF8D01DDFF8D00D9F
:1056F00009F0A4FDAFF300800499039A059826F001
:10570000FF2528F0FF234D4307FB035306F47F4694
:105710002AF0FF254E4302FB05330AF47F4A2BF0A3
:10572000FF250BF47F4B00FB053308F47F4507FB97
:10573000056602FB0A6600FB0B661B0A360A079821
:1057400023F0FF2306F47F461E430088C20802F0C0
:10575000FC02C4F1FF04C100000A00F0F800E4B24A
:1057600012FB04F210FB04F010EB102012EB1222DB
:10577000401C521C0012121200EB164302EB1620C2
:105780001B0600061B0C400DC9B203F4784300F45D
:10579000FC6011FB04F1034301EB1120401C06EBFC
:1057A00020260798360643EAD66606800799249A8B
:1057B000881C0790219923984118219102982299D9
:1057C0005118002822917FF4A3AEA2E1002840F3F3
:1057D000AF81219122922393CDF890E02894CDF8C7
:1057E0001CC00A90289A21982299219C229F0A9BEA
:1057F000D2680014091424133F135B1E002804F020
:105800000F0407F00F070A9300F15881289B9B684B
:105810005D1EA84280F25281002900F14F81551E81
:10582000A94280F24B811BB2089A13FB010010447D
:105830000699057851F825804FEA186122000191F8
:105840001CD0069910F8012F51F82260310E3A0051
:105850008DF802101CD01844069910F8012D51F84B
:1058600022A0069A4FEA1A618DF80010407852F88B
:1058700020B04FEA1B618DF8011009E0390007D014
:105880000699C05C51F820A04FEA1A618DF800100B
:10589000A1463D46B9F1100FB8BF102D09DB40F20B
:1058A0001922DFF8F818DFF8F80809F0C7FCAFF3A1
:1058B000008015FB09F004900498019BC0EB0411D3
:1058C00089B2C0EB0712039192B20292C0F58077C1
:1058D0000399029A9DF802407F1ABF1ABFB2614332
:1058E00007FB03119DF800309DF8014002FB0311F6
:1058F00000FB04142404240E00F0FC800198C0B2C4
:10590000FF2818D0019928F0FF20484308F47F426F
:10591000030A4A4323F0FF23181802EB122100F177
:10592000011001F58071000A090A20F0FF2001F43E
:105930007F4141EA00089DF80200FF2818D0014687
:1059400026F0FF20484306F47F46020A4E4322F029
:10595000FF22101806EB162100F1011001F58071ED
:10596000000A090A20F0FF2001F47F4141EA000605
:105970009DF80000FF2819D001462AF0FF200AF404
:105980007F42484301FB02F3020A22F0FF22101873
:1059900003EB132100F1011001F58071000A090ADF
:1059A00020F0FF2001F47F4141EA000A9DF8010048
:1059B000FF2819D001462BF0FF200BF47F4248430B
:1059C00001FB02F3020A22F0FF22101803EB13215D
:1059D00000F1011001F58071000A090A20F0FF2092
:1059E00001F47F4141EA000BB9F1100FB8BF102D4F
:1059F00009DB40F22E22DFF8C41ADFF8C40A09F0EE
:105A00001DFCAFF300800399029A049826F0FF254D
:105A100028F0FF234D4307FB035306F47F462AF08B
:105A2000FF254E4302FB05330AF47F4A2BF0FF2586
:105A30000BF47F4B00FB053308F47F4507FB05663D
:105A400002FB0A6600FB0B661B0A360A079823F066
:105A5000FF2306F47F461E430088C20802F0FC02C2
:105A6000C4F1FF04C100000A00F0F800E4B212FB28
:105A700004F210FB04F010EB102012EB1222401C79
:105A8000521C0012121200EB164302EB16201B06EA
:105A900000061B0C400DC9B203F4784300F4FC600F
:105AA00011FB04F1034301EB1120401C06EB2026FF
:105AB0000798360643EAD66606801BE0451C19D4D3
:105AC000289B9B6803F1010C654513DA11F101096C
:105AD00010D4551CA9450DDA12B21BB203910290E5
